:020000040000FA
:060000000A128A110C280F
:10000800FE00030EF2000A08F3000A128A111328F0
:100018000A128A110F2883010A128A11CB28831227
:1000280003130C1F1828192870281F0CF000700CD7
:100038000F39003A031D2128222849281E08860066
:100048000608F0000310700C803E950006182D2855
:100058003128831203139716342883120313971237
:10006800831603131E08F00007300310F00CFF3E40
:10007800031D39287008F100F10E831203131708C5
:100088007106EF39710697006F281E08860006086A
:10009800F0000310700C803E9B0006185428582866
:1000A800831203139D165B28831203139D12831674
:1000B80003131E08F00007300310F00CFF3E031D69
:1000C80060287008F100F10E831203131D087106F1
:1000D800EF3971069D000C1373088A00720E8300B5
:1000E800FE0E7E0E0900831603130F178F160F16C8
:1000F8000F14831603178901033088000330831611
:100108000313850086018701831203138501860185
:100118008701831603139F131F129F128312031361
:100128001F083F3980389F00C3309F052130F400F5
:10013800F40B9C28831203131F14FA30831603133D
:1001480092003F308312031397051708F0390C38D3
:1001580097001D08F0390C389D000F3095000F30BE
:100168009B00CF3097059D121D128C10921412140B
:1001780012158C1CC028C128BD288C108B170B1792
:10018800831603130C17831203130C1308000A12A7
:100198008A1177200A128A11831203139F149F1859
:1001A800D628D728D3281F0CF500750C0F39003A2C
:1001B800031DDF28E028E5281F08C33904389F00FD
:1001C800E728C3309F052130F500F50BE928831295
:0C01D80003139F14D3280A128A110C286C
:04400E00C430FF3F7C
:00000001FF
